{
  "contractName": "Todo",
  "abi": [
    {
      "anonymous": false,
      "inputs": [
        {
          "indexed": false,
          "internalType": "address",
          "name": "_from",
          "type": "address"
        },
        {
          "indexed": false,
          "internalType": "string",
          "name": "_name",
          "type": "string"
        }
      ],
      "name": "AddTask",
      "type": "event"
    },
    {
      "anonymous": false,
      "inputs": [
        {
          "indexed": false,
          "internalType": "address",
          "name": "_from",
          "type": "address"
        },
        {
          "indexed": false,
          "internalType": "uint256",
          "name": "_index",
          "type": "uint256"
        }
      ],
      "name": "DeleteTask",
      "type": "event"
    },
    {
      "anonymous": false,
      "inputs": [
        {
          "indexed": false,
          "internalType": "address",
          "name": "_from",
          "type": "address"
        },
        {
          "indexed": false,
          "internalType": "string",
          "name": "_name",
          "type": "string"
        }
      ],
      "name": "UpdateTask",
      "type": "event"
    },
    {
      "inputs": [
        {
          "internalType": "string",
          "name": "taskName",
          "type": "string"
        }
      ],
      "name": "addTask",
      "outputs": [],
      "stateMutability": "nonpayable",
      "type": "function"
    },
    {
      "inputs": [
        {
          "internalType": "uint256",
          "name": "_index",
          "type": "uint256"
        },
        {
          "internalType": "string",
          "name": "_name",
          "type": "string"
        }
      ],
      "name": "updateTask",
      "outputs": [],
      "stateMutability": "nonpayable",
      "type": "function"
    },
    {
      "inputs": [
        {
          "internalType": "uint256",
          "name": "_index",
          "type": "uint256"
        }
      ],
      "name": "deleteTask",
      "outputs": [],
      "stateMutability": "nonpayable",
      "type": "function"
    },
    {
      "inputs": [
        {
          "internalType": "uint256",
          "name": "_index",
          "type": "uint256"
        }
      ],
      "name": "markDoneTask",
      "outputs": [],
      "stateMutability": "nonpayable",
      "type": "function"
    },
    {
      "inputs": [],
      "name": "getAllTask",
      "outputs": [
        {
          "components": [
            {
              "internalType": "string",
              "name": "name",
              "type": "string"
            },
            {
              "internalType": "bool",
              "name": "isDone",
              "type": "bool"
            }
          ],
          "internalType": "struct Todo.TodoList[]",
          "name": "",
          "type": "tuple[]"
        }
      ],
      "stateMutability": "view",
      "type": "function",
      "constant": true
    }
  ],
  "bytecode": "0x608060405234801561001057600080fd5b506112df806100206000396000f3fe608060405234801561001057600080fd5b50600436106100575760003560e01c80631bbaf3cf1461005c578063560f31921461007a5780636723856214610096578063736f1d59146100b257806386533f6c146100ce575b600080fd5b6100646100ea565b6040516100719190610967565b60405180910390f35b610094600480360381019061008f91906109d3565b610232565b005b6100b060048036038101906100ab9190610a65565b610489565b005b6100cc60048036038101906100c791906109d3565b6105c9565b005b6100e860048036038101906100e39190610be2565b6106b4565b005b60606000803373ffffffffffffffffffffffffffffffffffffffff1673ffffffffffffffffffffffffffffffffffffffff168152602001908152602001600020805480602002602001604051908101604052809291908181526020016000905b82821015610229578382906000526020600020906002020160405180604001604052908160008201805461017d90610c6d565b80601f01602080910402602001604051908101604052809291908181526020018280546101a990610c6d565b80156101f65780601f106101cb576101008083540402835291602001916101f6565b820191906000526020600020905b8154815290600101906020018083116101d957829003601f168201915b505050505081526020016001820160009054906101000a900460ff1615151515815250508152602001906001019061014a565b50505050905090565b60008060003373ffffffffffffffffffffffffffffffffffffffff1673ffffffffffffffffffffffffffffffffffffffff1681526020019081526020016000208054905090508082106102855750610486565b60008290505b6001826102989190610ccd565b8110156103bf576000803373ffffffffffffffffffffffffffffffffffffffff1673ffffffffffffffffffffffffffffffffffffffff1681526020019081526020016000206001826102ea9190610d01565b815481106102fb576102fa610d35565b5b90600052602060002090600202016000803373ffffffffffffffffffffffffffffffffffffffff1673ffffffffffffffffffffffffffffffffffffffff168152602001908152602001600020828154811061035957610358610d35565b5b90600052602060002090600202016000820181600001908161037b9190610f26565b506001820160009054906101000a900460ff168160010160006101000a81548160ff02191690831515021790555090505080806103b79061100e565b91505061028b565b506000803373ffffffffffffffffffffffffffffffffffffffff1673ffffffffffffffffffffffffffffffffffffffff16815260200190815260200160002080548061040e5761040d611056565b5b6001900381819060005260206000209060020201600080820160006104339190610760565b6001820160006101000a81549060ff0219169055505090557fae45030fab4b47fe9274669e0ac6710bd0e407abf52a4909a53d981177bdba3e338360405161047c9291906110d5565b60405180910390a1505b50565b6000604051806040016040528084848080601f016020809104026020016040519081016040528093929190818152602001838380828437600081840152601f19601f8201169050808301925050505050505081526020016000151581525090506000803373ffffffffffffffffffffffffffffffffffffffff1673ffffffffffffffffffffffffffffffffffffffff168152602001908152602001600020819080600181540180825580915050600190039060005260206000209060020201600090919091909150600082015181600001908161056691906110fe565b5060208201518160010160006101000a81548160ff02191690831515021790555050507fa8c0af814eaae0292ce82511a463a7dd0bd173bf1373d15019aab89d499294ca3384846040516105bc9392919061120e565b60405180910390a1505050565b6000803373ffffffffffffffffffffffffffffffffffffffff1673ffffffffffffffffffffffffffffffffffffffff168152602001908152602001600020818154811061061957610618610d35565b5b906000526020600020906002020160010160009054906101000a900460ff16156000803373ffffffffffffffffffffffffffffffffffffffff1673ffffffffffffffffffffffffffffffffffffffff168152602001908152602001600020828154811061068957610688610d35565b5b906000526020600020906002020160010160006101000a81548160ff02191690831515021790555050565b806000803373ffffffffffffffffffffffffffffffffffffffff1673ffffffffffffffffffffffffffffffffffffffff168152602001908152602001600020838154811061070557610704610d35565b5b9060005260206000209060020201600001908161072291906110fe565b507fc4e03654a017a1234a98c9c904d575d819e0d4be8c56337c6b3a1dc6f2601a313382604051610754929190611279565b60405180910390a15050565b50805461076c90610c6d565b6000825580601f1061077e575061079d565b601f01602090049060005260206000209081019061079c91906107a0565b5b50565b5b808211156107b95760008160009055506001016107a1565b5090565b600081519050919050565b600082825260208201905092915050565b6000819050602082019050919050565b600081519050919050565b600082825260208201905092915050565b60005b83811015610823578082015181840152602081019050610808565b60008484015250505050565b6000601f19601f8301169050919050565b600061084b826107e9565b61085581856107f4565b9350610865818560208601610805565b61086e8161082f565b840191505092915050565b60008115159050919050565b61088e81610879565b82525050565b600060408301600083015184820360008601526108b18282610840565b91505060208301516108c66020860182610885565b508091505092915050565b60006108dd8383610894565b905092915050565b6000602082019050919050565b60006108fd826107bd565b61090781856107c8565b935083602082028501610919856107d9565b8060005b85811015610955578484038952815161093685826108d1565b9450610941836108e5565b925060208a0199505060018101905061091d565b50829750879550505050505092915050565b6000602082019050818103600083015261098181846108f2565b905092915050565b6000604051905090565b600080fd5b600080fd5b6000819050919050565b6109b08161099d565b81146109bb57600080fd5b50565b6000813590506109cd816109a7565b92915050565b6000602082840312156109e9576109e8610993565b5b60006109f7848285016109be565b91505092915050565b600080fd5b600080fd5b600080fd5b60008083601f840112610a2557610a24610a00565b5b8235905067ffffffffffffffff811115610a4257610a41610a05565b5b602083019150836001820283011115610a5e57610a5d610a0a565b5b9250929050565b60008060208385031215610a7c57610a7b610993565b5b600083013567ffffffffffffffff811115610a9a57610a99610998565b5b610aa685828601610a0f565b92509250509250929050565b600080fd5b7f4e487b7100000000000000000000000000000000000000000000000000000000600052604160045260246000fd5b610aef8261082f565b810181811067ffffffffffffffff82111715610b0e57610b0d610ab7565b5b80604052505050565b6000610b21610989565b9050610b2d8282610ae6565b919050565b600067ffffffffffffffff821115610b4d57610b4c610ab7565b5b610b568261082f565b9050602081019050919050565b82818337600083830152505050565b6000610b85610b8084610b32565b610b17565b905082815260208101848484011115610ba157610ba0610ab2565b5b610bac848285610b63565b509392505050565b600082601f830112610bc957610bc8610a00565b5b8135610bd9848260208601610b72565b91505092915050565b60008060408385031215610bf957610bf8610993565b5b6000610c07858286016109be565b925050602083013567ffffffffffffffff811115610c2857610c27610998565b5b610c3485828601610bb4565b9150509250929050565b7f4e487b7100000000000000000000000000000000000000000000000000000000600052602260045260246000fd5b60006002820490506001821680610c8557607f821691505b602082108103610c9857610c97610c3e565b5b50919050565b7f4e487b7100000000000000000000000000000000000000000000000000000000600052601160045260246000fd5b6000610cd88261099d565b9150610ce38361099d565b9250828203905081811115610cfb57610cfa610c9e565b5b92915050565b6000610d0c8261099d565b9150610d178361099d565b9250828201905080821115610d2f57610d2e610c9e565b5b92915050565b7f4e487b7100000000000000000000000000000000000000000000000000000000600052603260045260246000fd5b600081549050610d7381610c6d565b9050919050565b60008190508160005260206000209050919050565b60006020601f8301049050919050565b600082821b905092915050565b600060088302610ddc7fffffffffffffffffffffffffffffffffffffffffffffffffffffffffffffffff82610d9f565b610de68683610d9f565b95508019841693508086168417925050509392505050565b6000819050919050565b6000610e23610e1e610e198461099d565b610dfe565b61099d565b9050919050565b6000819050919050565b610e3d83610e08565b610e51610e4982610e2a565b848454610dac565b825550505050565b600090565b610e66610e59565b610e71818484610e34565b505050565b5b81811015610e9557610e8a600082610e5e565b600181019050610e77565b5050565b601f821115610eda57610eab81610d7a565b610eb484610d8f565b81016020851015610ec3578190505b610ed7610ecf85610d8f565b830182610e76565b50505b505050565b600082821c905092915050565b6000610efd60001984600802610edf565b1980831691505092915050565b6000610f168383610eec565b9150826002028217905092915050565b818103610f3457505061100c565b610f3d82610d64565b67ffffffffffffffff811115610f5657610f55610ab7565b5b610f608254610c6d565b610f6b828285610e99565b6000601f831160018114610f9a5760008415610f88578287015490505b610f928582610f0a565b865550611005565b601f198416610fa887610d7a565b9650610fb386610d7a565b60005b82811015610fdb57848901548255600182019150600185019450602081019050610fb6565b86831015610ff85784890154610ff4601f891682610eec565b8355505b6001600288020188555050505b5050505050505b565b60006110198261099d565b91507fffffffffffffffffffffffffffffffffffffffffffffffffffffffffffffffff820361104b5761104a610c9e565b5b600182019050919050565b7f4e487b7100000000000000000000000000000000000000000000000000000000600052603160045260246000fd5b600073ffffffffffffffffffffffffffffffffffffffff82169050919050565b60006110b082611085565b9050919050565b6110c0816110a5565b82525050565b6110cf8161099d565b82525050565b60006040820190506110ea60008301856110b7565b6110f760208301846110c6565b9392505050565b611107826107e9565b67ffffffffffffffff8111156111205761111f610ab7565b5b61112a8254610c6d565b611135828285610e99565b600060209050601f8311600181146111685760008415611156578287015190505b6111608582610f0a565b8655506111c8565b601f19841661117686610d7a565b60005b8281101561119e57848901518255600182019150602085019450602081019050611179565b868310156111bb57848901516111b7601f891682610eec565b8355505b6001600288020188555050505b505050505050565b600082825260208201905092915050565b60006111ed83856111d0565b93506111fa838584610b63565b6112038361082f565b840190509392505050565b600060408201905061122360008301866110b7565b81810360208301526112368184866111e1565b9050949350505050565b600061124b826107e9565b61125581856111d0565b9350611265818560208601610805565b61126e8161082f565b840191505092915050565b600060408201905061128e60008301856110b7565b81810360208301526112a08184611240565b9050939250505056fea2646970667358221220e8edf165e9c80bc88aec6df9a1193fdc1f63d18e3e935bcc5d19335be98f892264736f6c63430008100033",
  "immutableReferences": {},
  "source": "// SPDX-License-Identifier: MIT\npragma solidity >=0.4.22 <0.9.0;\n\ncontract Todo {\n    struct TodoList{\n        string name;\n        bool isDone;\n    }\n\n    event AddTask(address _from, string _name);\n    event DeleteTask(address _from, uint _index);\n    event UpdateTask(address _from, string _name);\n\n    mapping (address=> TodoList[]) tasksList;\n\n    //we used calldata here as we are not modifing anything in this task\n    function addTask(string calldata taskName) public {\n        TodoList memory task = TodoList({name: taskName, isDone:false});\n        tasksList[msg.sender].push(task);\n        emit AddTask(msg.sender, taskName);\n    }\n\n    function updateTask(uint _index, string memory _name) public {\n         tasksList[msg.sender][_index].name = _name;\n          emit UpdateTask(msg.sender, _name);\n    }\n\n    function deleteTask(uint _index) public {\n        uint length = tasksList[msg.sender].length;\n        if (_index >= length) return;\n\n        for (uint i = _index; i<length-1; i++){\n            tasksList[msg.sender][i] = tasksList[msg.sender][i+1];\n        }\n        tasksList[msg.sender].pop();\n        //delete tasksList[msg.sender][_index];\n        emit DeleteTask(msg.sender, _index);\n    }\n\n    function markDoneTask(uint _index) public {\n        tasksList[msg.sender][_index].isDone = !tasksList[msg.sender][_index].isDone;\n    }\n\n    function getAllTask() public view returns(TodoList[] memory) {\n        return tasksList[msg.sender];\n    }\n }",
  "sourcePath": "/Users/hiteshumaletiya/Documents/Demo/blockchain/ethereum/dtodoapp/src/contracts/Todo.sol",
  "compiler": {
    "name": "solc",
    "version": "0.8.16+commit.07a7930e.Emscripten.clang"
  },
  "schemaVersion": "3.4.9",
  "updatedAt": "2022-09-30T08:43:25.390Z",
  "networkType": "ethereum",
  "devdoc": {
    "kind": "dev",
    "methods": {},
    "version": 1
  },
  "userdoc": {
    "kind": "user",
    "methods": {},
    "version": 1
  }
}